S02B0000433A5C4D3234325C70726F6A5C48656C6C6F576F726C64524C616963685C48656C6C6F576F726C641C
S11300000C9434000C9451000C9451000C94510045
S11300100C9451000C9451000C9451000C94510018
S11300200C9451000C9451000C9451000C94510008
S11300300C9451000C9451000C9451000C945100F8
S11300400C9451000C9451000C9496000C945100A3
S11300500C9451000C9451000C9451000C945100D8
S11300600C9451000C94510011241FBECFEFD8E022
S1130070DEBFCDBF11E0A0E0B1E0EAE5F2E002C0EE
S113008005900D92A030B107D9F721E0A0E0B1E0CE
S113009001C01D92A332B207E1F70E9453000C94F1
S11300A02B010C94000060E970ED83E090E00E9465
S11300B07B0081E090E00E94030182E090E00E94D6
S11300C003012FEF83ED90E3215080409040E1F74E
S11300D000C00000F2CFF894809102018F5F8093FA
S11300E002010895809102018150809302018111DF
S11300F001C0789408959B01AC0160E472E48FE040
S113010090E00E94090121503109E0ECF0E03583D0
S1130110248388E181838EE082830895E0ECF0E01B
S1130120908195FFFDCF8093C60008951F920F9292
S11301300FB60F9211242F938F939F93AF93BF9376
S1130140EF93FF93E0ECF0E019C026818091010168
S113015090E001968F719078992324F40197806E32
S11301609F6F019690910001891741F0A0910101C0
S1130170B0E0AD5FBE4F2C93809301018081882352
S113018024F3FF91EF91BF91AF919F918F912F91A4
S11301900F900FBE0F901F901895CF93C82F892FE3
S11301A00E948E008C2F0E948E00CF910895EF92B2
S11301B0FF920F931F93CF93DF93EC01E62EF72E5C
S11301C0142F0E946B0085EA0E948E00812F886A9A
S11301D00E948E00CE010E94CD00CFEFC10F1116F8
S11301E04CF40E2D1F2DF80181918F010E948E0079
S11301F0C150C8F70E947200DF91CF911F910F91F7
S1130200FF90EF90089540E060E070E00E94D70016
S11302100895A1E21A2EAA1BBB1BFD010DC0AA1F43
S1130220BB1FEE1FFF1FA217B307E407F50720F05B
S1130230A21BB30BE40BF50B661F771F881F991FD6
S11302401A9469F760957095809590959B01AC011F
S10D0250BD01CF010895F894FFCF1B
S9030000FC
